:0400000080312828FB
:100008007E1480310B1F09280A2826282100901EFB
:100018000E280F2818282000901E132814281828A6
:1000280080319720803126282100111F1C281D2887
:1000380026282000111F2128222826288131212145
:10004800803126287E10090080312A28F001F1012C
:10005800F201F301F401F501F601F7017E10200029
:100068008031BC2822008C018E010B3021008C00CD
:100078003F308E00233023008C003D308E0024005A
:100088008C018E0125008C018E01373026008C00F2
:100098003F308E003F3027008C003F308E000C3000
:1000A8003D00920002309400033095002700910132
:1000B8009201930197019801990108008131122159
:1000C80080318031362080318031AA2080318031E2
:1000D800F12080318031812080318031D9208031F8
:1000E8008031CB2080318131082180318031E52079
:1000F80080318031FD20803108006D30200096006D
:1001080084309500503098001608F3001508F20066
:100118002430F8000130F900901221009016903038
:1001280020009700080073082000960072089500C8
:10013800780879040319A128A228A72879088A0031
:1001480078080A00803120009012080021001D1054
:1001580001309D00D0309E009C019B019F01F4015D
:10016800F501200011132100111301309D00080032
:100178008031622080318B170B170030FC00003073
:10018800FD0081311C218031C82880312828953014
:1001980028009D009C0100302000A2000030A30030
:1001A8009213043028009E000800953020009E001D
:1001B8009D010030A0000030A100911004309F0084
:1001C800080080302C009C004A309B00C0309A0008
:1001D8001F08F33904389F0008008F30250093006A
:1001E800013092002B3091001F08FC3901389F0024
:1001F8000800200010100B140030FC000030FD0037
:1002080081311C218031080080302C0099004A304F
:100218009800C030970003309F0408006230320015
:1002280099009B019D0105309F009E019C010800DB
:100238007D08FB007C08FA00080020001113080064
:020248000800AC
:020000040001F9
:08000E008F3FF33FFF3FFF3F6E
:00000001FF
